{
  "_format": "hh-sol-artifact-1",
  "contractName": "KlasterGatewaySingletonGasless",
  "sourceName": "contracts/ccAccount/KlasterGatewaySingletonGasless.sol",
  "abi": [
    {
      "inputs": [
        {
          "internalType": "address",
          "name": "masterWallet",
          "type": "address"
        },
        {
          "internalType": "string[]",
          "name": "salt",
          "type": "string[]"
        },
        {
          "internalType": "address[]",
          "name": "destination",
          "type": "address[]"
        },
        {
          "internalType": "uint256[]",
          "name": "value",
          "type": "uint256[]"
        },
        {
          "internalType": "bytes[]",
          "name": "data",
          "type": "bytes[]"
        },
        {
          "internalType": "bytes32[]",
          "name": "extraData",
          "type": "bytes32[]"
        },
        {
          "internalType": "uint256[]",
          "name": "nonce",
          "type": "uint256[]"
        },
        {
          "internalType": "uint256[]",
          "name": "chainId",
          "type": "uint256[]"
        },
        {
          "internalType": "bytes",
          "name": "signatures",
          "type": "bytes"
        }
      ],
      "name": "batchExecute",
      "outputs": [],
      "stateMutability": "nonpayable",
      "type": "function"
    },
    {
      "inputs": [
        {
          "components": [
            {
              "internalType": "bytes32",
              "name": "messageId",
              "type": "bytes32"
            },
            {
              "internalType": "uint64",
              "name": "sourceChainSelector",
              "type": "uint64"
            },
            {
              "internalType": "bytes",
              "name": "sender",
              "type": "bytes"
            },
            {
              "internalType": "bytes",
              "name": "data",
              "type": "bytes"
            },
            {
              "components": [
                {
                  "internalType": "address",
                  "name": "token",
                  "type": "address"
                },
                {
                  "internalType": "uint256",
                  "name": "amount",
                  "type": "uint256"
                }
              ],
              "internalType": "struct Client.EVMTokenAmount[]",
              "name": "destTokenAmounts",
              "type": "tuple[]"
            }
          ],
          "internalType": "struct Client.Any2EVMMessage",
          "name": "message",
          "type": "tuple"
        }
      ],
      "name": "ccipReceive",
      "outputs": [],
      "stateMutability": "nonpayable",
      "type": "function"
    },
    {
      "inputs": [
        {
          "internalType": "address",
          "name": "masterWallet",
          "type": "address"
        },
        {
          "internalType": "string",
          "name": "salt",
          "type": "string"
        }
      ],
      "name": "deploy",
      "outputs": [
        {
          "internalType": "address",
          "name": "",
          "type": "address"
        }
      ],
      "stateMutability": "nonpayable",
      "type": "function"
    },
    {
      "inputs": [
        {
          "internalType": "address",
          "name": "masterWallet",
          "type": "address"
        },
        {
          "internalType": "string",
          "name": "salt",
          "type": "string"
        },
        {
          "internalType": "address",
          "name": "destination",
          "type": "address"
        },
        {
          "internalType": "uint256",
          "name": "value",
          "type": "uint256"
        },
        {
          "internalType": "bytes",
          "name": "data",
          "type": "bytes"
        },
        {
          "internalType": "bytes32",
          "name": "extraData",
          "type": "bytes32"
        },
        {
          "internalType": "uint256",
          "name": "chainId",
          "type": "uint256"
        },
        {
          "internalType": "bytes",
          "name": "signatures",
          "type": "bytes"
        }
      ],
      "name": "execute",
      "outputs": [
        {
          "internalType": "bool",
          "name": "result",
          "type": "bool"
        }
      ],
      "stateMutability": "nonpayable",
      "type": "function"
    },
    {
      "inputs": [
        {
          "internalType": "address",
          "name": "_sourceRouter",
          "type": "address"
        },
        {
          "internalType": "uint64",
          "name": "_thisChainSelector",
          "type": "uint64"
        }
      ],
      "stateMutability": "nonpayable",
      "type": "constructor"
    },
    {
      "inputs": [
        {
          "internalType": "address",
          "name": "router",
          "type": "address"
        }
      ],
      "name": "InvalidRouter",
      "type": "error"
    },
    {
      "anonymous": false,
      "inputs": [
        {
          "indexed": true,
          "internalType": "address",
          "name": "masterWallet",
          "type": "address"
        },
        {
          "indexed": true,
          "internalType": "address",
          "name": "subaccount",
          "type": "address"
        }
      ],
      "name": "ExecuteTransaction",
      "type": "event"
    },
    {
      "inputs": [
        {
          "internalType": "address",
          "name": "safeAddress",
          "type": "address"
        },
        {
          "internalType": "uint64[]",
          "name": "relayChainSelectors",
          "type": "uint64[]"
        },
        {
          "internalType": "uint64[]",
          "name": "destChainSelectors",
          "type": "uint64[]"
        },
        {
          "internalType": "uint256",
          "name": "gasLimit",
          "type": "uint256"
        }
      ],
      "name": "syncSafeState",
      "outputs": [],
      "stateMutability": "payable",
      "type": "function"
    },
    {
      "anonymous": false,
      "inputs": [
        {
          "indexed": true,
          "internalType": "address",
          "name": "masterWallet",
          "type": "address"
        }
      ],
      "name": "SyncSafeState",
      "type": "event"
    },
    {
      "stateMutability": "payable",
      "type": "receive"
    },
    {
      "inputs": [
        {
          "internalType": "bytes",
          "name": "signatures",
          "type": "bytes"
        },
        {
          "internalType": "uint256",
          "name": "pos",
          "type": "uint256"
        }
      ],
      "name": "_signatureSplit",
      "outputs": [
        {
          "internalType": "uint8",
          "name": "v",
          "type": "uint8"
        },
        {
          "internalType": "bytes32",
          "name": "r",
          "type": "bytes32"
        },
        {
          "internalType": "bytes32",
          "name": "s",
          "type": "bytes32"
        }
      ],
      "stateMutability": "pure",
      "type": "function"
    },
    {
      "inputs": [
        {
          "internalType": "address",
          "name": "owner",
          "type": "address"
        },
        {
          "internalType": "string",
          "name": "salt",
          "type": "string"
        }
      ],
      "name": "calculateAddress",
      "outputs": [
        {
          "internalType": "address",
          "name": "",
          "type": "address"
        }
      ],
      "stateMutability": "view",
      "type": "function"
    },
    {
      "inputs": [
        {
          "internalType": "address",
          "name": "owner",
          "type": "address"
        },
        {
          "internalType": "string",
          "name": "salt",
          "type": "string"
        },
        {
          "internalType": "bytes",
          "name": "byteCode",
          "type": "bytes"
        },
        {
          "internalType": "bytes32",
          "name": "create2Salt",
          "type": "bytes32"
        }
      ],
      "name": "calculateCreate2Address",
      "outputs": [
        {
          "internalType": "address",
          "name": "",
          "type": "address"
        }
      ],
      "stateMutability": "view",
      "type": "function"
    },
    {
      "inputs": [
        {
          "internalType": "address",
          "name": "safeAddress",
          "type": "address"
        },
        {
          "internalType": "uint64[]",
          "name": "relayChainSelectors",
          "type": "uint64[]"
        },
        {
          "internalType": "uint64[]",
          "name": "destChainSelectors",
          "type": "uint64[]"
        },
        {
          "internalType": "uint256",
          "name": "gasLimit",
          "type": "uint256"
        }
      ],
      "name": "calculateSyncSafeStateFee",
      "outputs": [
        {
          "internalType": "uint256",
          "name": "totalFee",
          "type": "uint256"
        }
      ],
      "stateMutability": "view",
      "type": "function"
    },
    {
      "inputs": [
        {
          "internalType": "address",
          "name": "masterWallet",
          "type": "address"
        },
        {
          "internalType": "bytes32",
          "name": "dataHash",
          "type": "bytes32"
        },
        {
          "internalType": "bytes",
          "name": "signatures",
          "type": "bytes"
        }
      ],
      "name": "checkSignatures",
      "outputs": [],
      "stateMutability": "view",
      "type": "function"
    },
    {
      "inputs": [
        {
          "internalType": "address",
          "name": "",
          "type": "address"
        }
      ],
      "name": "controllingChains",
      "outputs": [
        {
          "internalType": "uint64",
          "name": "",
          "type": "uint64"
        }
      ],
      "stateMutability": "view",
      "type": "function"
    },
    {
      "inputs": [
        {
          "internalType": "address",
          "name": "",
          "type": "address"
        },
        {
          "internalType": "address",
          "name": "",
          "type": "address"
        }
      ],
      "name": "controllingOwners",
      "outputs": [
        {
          "internalType": "address",
          "name": "",
          "type": "address"
        }
      ],
      "stateMutability": "view",
      "type": "function"
    },
    {
      "inputs": [
        {
          "internalType": "address",
          "name": "",
          "type": "address"
        }
      ],
      "name": "controllingThresholds",
      "outputs": [
        {
          "internalType": "uint256",
          "name": "",
          "type": "uint256"
        }
      ],
      "stateMutability": "view",
      "type": "function"
    },
    {
      "inputs": [
        {
          "internalType": "address",
          "name": "",
          "type": "address"
        }
      ],
      "name": "deployed",
      "outputs": [
        {
          "internalType": "bool",
          "name": "",
          "type": "bool"
        }
      ],
      "stateMutability": "view",
      "type": "function"
    },
    {
      "inputs": [],
      "name": "domainSeparator",
      "outputs": [
        {
          "internalType": "bytes32",
          "name": "",
          "type": "bytes32"
        }
      ],
      "stateMutability": "view",
      "type": "function"
    },
    {
      "inputs": [
        {
          "internalType": "address",
          "name": "masterWallet",
          "type": "address"
        },
        {
          "internalType": "string[]",
          "name": "salt",
          "type": "string[]"
        },
        {
          "internalType": "address[]",
          "name": "to",
          "type": "address[]"
        },
        {
          "internalType": "uint256[]",
          "name": "value",
          "type": "uint256[]"
        },
        {
          "internalType": "bytes[]",
          "name": "data",
          "type": "bytes[]"
        },
        {
          "internalType": "bytes32[]",
          "name": "extraData",
          "type": "bytes32[]"
        },
        {
          "internalType": "uint256[]",
          "name": "nonce",
          "type": "uint256[]"
        },
        {
          "internalType": "uint256[]",
          "name": "chainId",
          "type": "uint256[]"
        }
      ],
      "name": "getBatchTransactionHash",
      "outputs": [
        {
          "internalType": "bytes32",
          "name": "calculatedHash",
          "type": "bytes32"
        }
      ],
      "stateMutability": "view",
      "type": "function"
    },
    {
      "inputs": [
        {
          "internalType": "address",
          "name": "owner",
          "type": "address"
        }
      ],
      "name": "getDeployedWallets",
      "outputs": [
        {
          "internalType": "address[]",
          "name": "",
          "type": "address[]"
        }
      ],
      "stateMutability": "view",
      "type": "function"
    },
    {
      "inputs": [],
      "name": "getRouter",
      "outputs": [
        {
          "internalType": "address",
          "name": "",
          "type": "address"
        }
      ],
      "stateMutability": "view",
      "type": "function"
    },
    {
      "inputs": [
        {
          "internalType": "address",
          "name": "masterWallet",
          "type": "address"
        },
        {
          "internalType": "string",
          "name": "salt",
          "type": "string"
        },
        {
          "internalType": "address",
          "name": "to",
          "type": "address"
        },
        {
          "internalType": "uint256",
          "name": "value",
          "type": "uint256"
        },
        {
          "internalType": "bytes",
          "name": "data",
          "type": "bytes"
        },
        {
          "internalType": "bytes32",
          "name": "extraData",
          "type": "bytes32"
        },
        {
          "internalType": "uint256",
          "name": "nonce",
          "type": "uint256"
        },
        {
          "internalType": "uint256",
          "name": "chainId",
          "type": "uint256"
        }
      ],
      "name": "getTransactionHash",
      "outputs": [
        {
          "internalType": "bytes32",
          "name": "",
          "type": "bytes32"
        }
      ],
      "stateMutability": "view",
      "type": "function"
    },
    {
      "inputs": [
        {
          "internalType": "address",
          "name": "",
          "type": "address"
        },
        {
          "internalType": "uint256",
          "name": "",
          "type": "uint256"
        }
      ],
      "name": "instances",
      "outputs": [
        {
          "internalType": "address",
          "name": "",
          "type": "address"
        }
      ],
      "stateMutability": "view",
      "type": "function"
    },
    {
      "inputs": [
        {
          "internalType": "address",
          "name": "",
          "type": "address"
        }
      ],
      "name": "masters",
      "outputs": [
        {
          "internalType": "address",
          "name": "",
          "type": "address"
        }
      ],
      "stateMutability": "view",
      "type": "function"
    },
    {
      "inputs": [
        {
          "internalType": "address",
          "name": "",
          "type": "address"
        }
      ],
      "name": "nonces",
      "outputs": [
        {
          "internalType": "uint256",
          "name": "",
          "type": "uint256"
        }
      ],
      "stateMutability": "view",
      "type": "function"
    },
    {
      "inputs": [
        {
          "internalType": "address",
          "name": "",
          "type": "address"
        }
      ],
      "name": "salts",
      "outputs": [
        {
          "internalType": "string",
          "name": "",
          "type": "string"
        }
      ],
      "stateMutability": "view",
      "type": "function"
    },
    {
      "inputs": [
        {
          "internalType": "bytes4",
          "name": "interfaceId",
          "type": "bytes4"
        }
      ],
      "name": "supportsInterface",
      "outputs": [
        {
          "internalType": "bool",
          "name": "",
          "type": "bool"
        }
      ],
      "stateMutability": "view",
      "type": "function"
    },
    {
      "inputs": [],
      "name": "thisChainSelector",
      "outputs": [
        {
          "internalType": "uint64",
          "name": "",
          "type": "uint64"
        }
      ],
      "stateMutability": "view",
      "type": "function"
    }
  ],
  "bytecode": "0x608034620000c1576001600160401b0390601f62003a6838819003918201601f191683019184831184841017620000c6578084926040948552833981010312620000c15780516001600160a01b0381169190829003620000c157602001519182168203620000c1578015620000a857600080546001600160e01b0319169190911760a09290921b600160a01b600160e01b031691909117905560405161398b9081620000dd8239f35b6040516335fdcccd60e21b815260006004820152602490fd5b600080fd5b634e487b7160e01b600052604160045260246000fdfe608060405260043610156200001d575b36156200001b57600080fd5b005b60003560e01c806301ffc9a714620001cc57806309c6df0014620001c65780631e1d65b414620001c05780633807d88c14620001ba5780633b73f23714620001b45780634a927eb214620001ae5780636ac6dfce14620001a85780637a38a10614620001a25780637ecebe00146200019c57806385572ffb146200019657806385bb392314620001905780638d891b14146200018a578063918aaff51462000184578063b0f479a1146200017e578063b23e44801462000178578063cc34a9c11462000172578063d7bf860a146200016c578063d9424e481462000166578063df2c67e51462000160578063e1912332146200015a578063f698da251462000154578063f855438b146200014e578063f931709314620001485763f9a27aef036200000f576200126d565b620011ff565b620011ac565b62001185565b62001167565b62001100565b6200101d565b62000d97565b62000ce7565b62000bf8565b62000b31565b62000b01565b62000a2e565b62000996565b62000891565b62000850565b6200080d565b620007c3565b6200075f565b620006e9565b62000577565b620003d1565b62000246565b620001ea565b6001600160e01b0319811603620001e557565b600080fd5b34620001e5576020366003190112620001e55760206004356200020d81620001d2565b63ffffffff60e01b166385572ffb60e01b811490811562000234575b506040519015158152f35b6301ffc9a760e01b1490503862000229565b34620001e5576000366003190112620001e55760206001600160401b0360005460a01c16604051908152f35b6001600160a01b03811603620001e557565b60443590620002938262000272565b565b634e487b7160e01b600052604160045260246000fd5b604081019081106001600160401b03821117620002c757604052565b62000295565b60a081019081106001600160401b03821117620002c757604052565b608081019081106001600160401b03821117620002c757604052565b90601f801991011681019081106001600160401b03821117620002c757604052565b604051906200029382620002cd565b9291926001600160401b038211620002c7576040519162000362601f8201601f19166020018462000305565b829481845281830111620001e5578281602093846000960137010152565b9080601f83011215620001e5578160206200039e9335910162000336565b90565b9181601f84011215620001e5578235916001600160401b038311620001e55760208381860195010111620001e557565b34620001e55760e0366003190112620001e557600435620003f28162000272565b6001600160401b03602435818111620001e5576200041590369060040162000380565b60443590620004248262000272565b608435928311620001e5576200046b93620004486200045b943690600401620003a1565b9160c4359460a435946064359262001998565b6040519081529081906020820190565b0390f35b6001600160401b038111620002c75760051b60200190565b6001600160401b03811603620001e557565b3590620002938262000487565b81601f82011215620001e557803591620004c0836200046f565b92620004d0604051948562000305565b808452602092838086019260051b820101928311620001e5578301905b828210620004fc575050505090565b83809183356200050c8162000487565b815201910190620004ed565b6080600319820112620001e557600435620005338162000272565b916001600160401b03602435818111620001e557836200055691600401620004a6565b92604435918211620001e5576200057091600401620004a6565b9060643590565b620005823662000518565b929062000593835182511462001867565b604051631cea46b760e31b81526001600160a01b0383169390602081600481885afa908115620006ae57600091620006b4575b5060405163a0e67e2b60e01b8152600081600481895afa908115620006ae5760009162000688575b5060005b845181101562000660576200065a9062000654896200061d6000546001600160401b039060a01c1690565b6200063a6200062d858a62001531565b516001600160401b031690565b6200064a6200062d868c62001531565b9188888d62001dfc565b6200151b565b620005f2565b867ff0dcc4a877abe2f0807821b8c025fe93fe0b0bc57ffa37597d9983cbd017355c600080a2005b620006a7913d8091833e6200069e818362000305565b8101906200196f565b38620005ee565b62001692565b620006da915060203d8111620006e1575b620006d1818362000305565b810190620018ed565b38620005c6565b503d620006c5565b34620001e5576020366003190112620001e5576004356200070a8162000272565b60018060a01b031660005260076020526020604060002054604051908152f35b634e487b7160e01b600052603260045260246000fd5b8054821015620007595760005260206000200190600090565b6200072a565b34620001e5576040366003190112620001e557600435620007808162000272565b6024359060018060a01b03809116600052600260205260406000208054831015620001e557602092620007b39162000740565b9190546040519260031b1c168152f35b34620001e5576020366003190112620001e557600435620007e48162000272565b60018060a01b0316600052600660205260206001600160401b0360406000205416604051908152f35b34620001e5576020366003190112620001e5576020600435620008308162000272565b60018060a01b038091166000526005825260406000205416604051908152f35b34620001e5576020366003190112620001e557600435620008718162000272565b60018060a01b031660005260016020526020604060002054604051908152f35b34620001e557600319602036820112620001e557600480356001600160401b0392838211620001e55760a0908236030112620001e557600080549093906001600160a01b031633036200097f57620008e862000327565b91808401358352620008fd6024820162000499565b602084015260448101358281116200097b57620009209085369184010162000380565b604084015260648101358281116200097b57620009439085369184010162000380565b60608401526084810135918211620009775762000974936200096992369201016200146d565b608082015262003047565b80f35b8480fd5b8580fd5b6040516335fdcccd60e21b81523381850152602490fd5b34620001e5576020366003190112620001e557600435620009b78162000272565b60018060a01b03166000526003602052602060ff604060002054166040519015158152f35b90815180825260208080930193019160005b828110620009fd575050505090565b83516001600160a01b031685529381019392810192600101620009ee565b9060206200039e928181520190620009dc565b34620001e557602080600319360112620001e55760043562000a508162000272565b60018060a01b0380911660005260028252604060002091604051809282855492838152019460005282600020926000915b83831062000aa9576200046b8662000a9c818a038262000305565b6040519182918262000a1b565b845481168752958101956001948501949092019162000a81565b906040600319830112620001e55760043562000adf8162000272565b91602435906001600160401b038211620001e5576200039e9160040162000380565b34620001e557602062000b1f62000b183662000ac3565b9062002cfd565b6040516001600160a01b039091168152f35b34620001e5576000366003190112620001e5576000546040516001600160a01b039091168152602090f35b90600182811c9216801562000b8e575b602083101462000b7857565b634e487b7160e01b600052602260045260246000fd5b91607f169162000b6c565b60005b83811062000bad5750506000910152565b818101518382015260200162000b9c565b9060209162000bd98151809281855285808601910162000b99565b601f01601f1916010190565b9060206200039e92818152019062000bbe565b34620001e557602080600319360112620001e5576004359062000c1b8262000272565b60009160018060a01b03168252600481526040822090604051918381549062000c448262000b5c565b8086529260019280841690811562000cc0575060011462000c80575b6200046b8662000c73818a038262000305565b6040519182918262000be5565b9080949650528483205b82841062000cac57505050816200046b9362000c739282010193388062000c60565b805485850187015292850192810162000c8a565b60ff19168787015250505050151560051b820101915062000c73816200046b388062000c60565b34620001e55760e0366003190112620001e55760043562000d088162000272565b6001600160401b03602435818111620001e55762000d2b90369060040162000380565b62000d3562000284565b90608435838111620001e55762000d51903690600401620003a1565b9060c435948511620001e5576200046b9562000d7662000d8596369060040162000380565b9460a4359460643592620016ff565b60405190151581529081906020820190565b34620001e5576080366003190112620001e55760043562000db88162000272565b6001600160401b03602435818111620001e55762000ddb90369060040162000380565b91604435918211620001e55762000e6962000e0f6200046b9462000e0862000e5a95369060040162000380565b9362001b67565b82516020938401206040516001600160f81b031994810194855260609290921b6bffffffffffffffffffffffff19166021830152606435603583015260558201529283906075820190565b03601f19810184528362000305565b905190206040516001600160a01b0390911681529081906020820190565b81601f82011215620001e55780359162000ea1836200046f565b9262000eb1604051948562000305565b808452602092838086019260051b820101928311620001e5578301905b82821062000edd575050505090565b838091833562000eed8162000272565b81520191019062000ece565b9080601f83011215620001e55781359062000f14826200046f565b9262000f24604051948562000305565b828452602092838086019160051b83010192808411620001e557848301915b84831062000f545750505050505090565b82356001600160401b038111620001e557869162000f788484809489010162000380565b81520192019162000f43565b81601f82011215620001e55780359162000f9e836200046f565b9262000fae604051948562000305565b808452602092838086019260051b820101928311620001e5578301905b82821062000fda575050505090565b8135815290830190830162000fcb565b9181601f84011215620001e5578235916001600160401b038311620001e5576020808501948460051b010111620001e557565b34620001e55760e0366003190112620001e55760046001600160401b038135818111620001e55762001053903690840162000e87565b90602435818111620001e5576200106e903690850162000ef9565b604435828111620001e55762001088903690860162000e87565b90606435838111620001e557620010a3903690870162000f84565b608435848111620001e557620010bd903690880162000fea565b93909260a435868111620001e557620010da9036908a0162000f84565b9560c435908111620001e5576200001b98620010f99136910162000ef9565b9662001546565b34620001e5576040366003190112620001e5576020600435620011238162000272565b6200115d602435620011358162000272565b6001600160a01b03928316600090815260088552604080822092851682526020929092522090565b5416604051908152f35b34620001e557602062000b1f6200117e3662000ac3565b9062001b67565b34620001e5576000366003190112620001e5576020620011a462001a7e565b604051908152f35b34620001e5576060366003190112620001e557600435620011cd8162000272565b604435906001600160401b038211620001e557620011f46200001b92369060040162000380565b9060243590620023d8565b34620001e5576040366003190112620001e5576004356001600160401b038111620001e557620012576200123a606092369060040162000380565b602435604102016020810151906060604082015191015160001a92565b9060ff6040519316835260208301526040820152f35b34620001e5576200127e3662000518565b6040805163a0e67e2b60e01b8152939460009492916001600160a01b03821691908685600481865afa948515620006ae5787956200144d575b5080518093631cea46b760e31b825281600460209687935afa908115620006ae5788916200142b575b508798620012f989546001600160401b039060a01c1690565b906001600160401b0382169a5b895181101562001421578b62001331620013256200062d848e62001531565b6001600160401b031690565b0362001349575b62001343906200151b565b62001306565b99898988888b8f6200135c818962001531565b516001600160401b031662001372828862001531565b516001600160401b031662001387916200325b565b9562001394828a62001531565b516001600160401b031691620013aa9162001531565b516001600160401b031690898b8d51978897880196620013ca9762001ac4565b03601f1981018252620013de908262000305565b893091620013ec9262002eec565b620013f88d8d62001531565b516001600160401b03166200140d926200313a565b90506200141a9162001b26565b9962001338565b84518b8152602090f35b620014469150843d8611620006e157620006d1818362000305565b38620012e0565b620014659195503d8089833e6200069e818362000305565b9338620012b7565b81601f82011215620001e55780359062001487826200046f565b92604092620014998451958662000305565b808552602091828087019260061b85010193818511620001e5578301915b848310620014c85750505050505090565b8583830312620001e5578386918251620014e281620002ab565b8535620014ef8162000272565b81528286013583820152815201920191620014b7565b634e487b7160e01b600052601160045260246000fd5b60001981146200152b5760010190565b62001505565b8051821015620007595760209160051b010190565b979693909492919760005b81518110156200161b5789906001600160a01b038062001572838662001531565b5116906200158e8362001586818d62001531565b519562001531565b5116906200159d838862001531565b51938884101562000759578360051b870135601e1988360301811215620001e55787018035906001600160401b038211620001e5576020018136038113620001e55762001615966200160e958f94620016068f96620015fe8b809262001531565b519762001531565b5196620016ff565b506200151b565b62001551565b50505050505050509050565b9190826040910312620001e55781518015158103620001e5576020909201516200039e8162000272565b95949360609360a0938293600180871b03168952602089015260806040890152816080890152838801376000828288010152601f8019910116850101930152565b6040513d6000823e3d90fd5b15620016a657565b60405162461bcd60e51b815260206004820152602b60248201527f4b6c61737465724761746577617953696e676c65746f6e3a3a2065786563757460448201526a34b7b7103330b4b632b21760a91b6064820152608490fd5b6001600160a01b0380821660008181526001602052604081208054989c9b999a92999198959796959293928d9185908d906200173b846200151b565b90556200174c938a8a8d8b62001998565b9662001759818662001b67565b6001600160a01b03811660009081526003602052604090209092905460ff161598620017b196620017949360409b62001853575b50620023d8565b169785519a8b958695637c5c4e6360e11b87526004870162001651565b038184875af1948515620006ae578195620017f9575b507f0568bc80595d225b6b79ebc98c87d0709a749a1baf3656b032c25980fd43ec0c90620017f5866200169e565b80a3565b7f0568bc80595d225b6b79ebc98c87d0709a749a1baf3656b032c25980fd43ec0c919550620018429060403d81116200184b575b62001839818362000305565b81019062001627565b509490620017c7565b503d6200182d565b6200185f908262002cfd565b50386200178d565b156200186f57565b60405162461bcd60e51b815260206004820152604a60248201527f4b6c61737465724761746577617953696e676c65746f6e3a3a2052656c61792060448201527f26206465737420636861696e2073656c6563746f7273206c6973742073697a656064820152691036b4b9b6b0ba31b41760b11b608482015260a490fd5b90816020910312620001e5575190565b81601f82011215620001e55780519162001917836200046f565b9262001927604051948562000305565b808452602092838086019260051b820101928311620001e5578301905b82821062001953575050505090565b8380918351620019638162000272565b81520191019062001944565b90602082820312620001e55781516001600160401b038111620001e5576200039e9201620018fd565b9390620019b262001a6b97989262001a7897369162000336565b602081519101209760405198899560208701977f4734eebb21fd6cb029f7b91a99a9c8d1b4d8898a04398fb3f35dff7e856e8b6f895260018060a01b03809116604089015262001a11610100958660608b01526101208a019062000bbe565b9616608088015260a087015260c086015260e0850152830152039362001a40601f199586810183528262000305565b5190209262001a4e62001a7e565b936040519384916020830196879091604092825260208201520190565b0390810183528262000305565b51902090565b60405160208101907f47e79534a245952e8b16893a336b85a3d9ea9fa8c573f3d803afb92a7946921882524660408201523060608201526060815262001a7881620002e9565b939060c095939897969262001aef9160018060a01b0316865260e0602087015260e0860190620009dc565b9760408501526001600160401b03928380921660608601521660808401521660a08201520152565b90602082018092116200152b57565b919082018092116200152b57565b601492916bffffffffffffffffffffffff199060601b16815262001b62825180936020868501910162000b99565b010190565b62001c0162001bf49262001baa604051918262001b8a6020820192878462001b34565b039262001ba0601f199485810183528262000305565b5190209362002e6a565b80516020918201206040516001600160f81b03199281019283523060601b6bffffffffffffffffffffffff1916602182015260358101959095526055850152929384906075820190565b0390810184528362000305565b905190206001600160a01b031690565b1562001c1957565b60405162461bcd60e51b815260206004820152605060248201527f4b6c61737465724761746577617953696e676c65746f6e3a3a2045746865722060448201527f616d6f756e7420746f6f206c6f772e2053656e64206d6f72652065746865722060648201526f3a379032bc32b1baba329031b0b6361760811b608482015260a490fd5b906001600160401b03909392931681526040602091818382015262001cce855160a08484015260e083019062000bbe565b9162001cec8487015193603f19948585830301606086015262000bbe565b8187015194848483030160808501528080875193848152019601926000905b83821062001d475750505060608701516001600160a01b031660a08401525093946200039e945060c09060800151928285030191015262000bbe565b845180516001600160a01b0316895283015188840152968701969382019360019091019062001d0b565b1562001d7957565b60405162461bcd60e51b815260206004820152604f60248201527f4b6c61737465724761746577617953696e676c65746f6e3a3a2073796e63206360448201527f616e206f6e6c792062652065786563757465642066726f6d2074686520636f6e60648201526e74726f6c6c696e6720636861696e2160881b608482015260a490fd5b959193909294600054906001600160401b0393848216858460a01c161460001462001ea957505050509362001e7085620002939662001e5e62001e518560018060a01b03166000526006602052604060002090565b546001600160401b031690565b161590811562001e76575b5062001d71565b6200211c565b6001600160a01b038416600090815260066020526040902090915062001e9c9062001e51565b8116908616143862001e69565b919490935062001ee662001f339862001ed784878760209c62001eed999c604051988f978a98890162001ac4565b03601f19810183528262000305565b3062002eec565b9262001f1662001f0c62001f038685856200313a565b9490936200325b565b9234101562001c11565b6040518096819582946396f4e9f960e01b84526004840162001c9d565b03926001600160a01b03165af18015620006ae5762001f4f5750565b62001f6a9060203d8111620006e157620006d1818362000305565b50565b95919394909294600054906001600160401b0393848416858460a01c161460001462001fc357505050509362001e7085620002939662001e5e62001e518560018060a01b03166000526006602052604060002090565b90935062001ff6919462001ee662001f339962001ed784878960209d6200200c9a9d604051986020978a98890162001ac4565b93620020048582856200313a565b50926200325b565b906040518096819582946396f4e9f960e01b84526004840162001c9d565b156200203257565b60405162461bcd60e51b815260206004820152602e60248201527f4b6c61737465724761746577617953696e676c65746f6e3a3a206e6f206f776e60448201526d195c9cc818dbdb999a59dd5c995960921b6064820152608490fd5b156200209657565b60405162461bcd60e51b815260206004820152605260248201527f4b6c61737465724761746577617953696e676c65746f6e3a3a2074687265736860448201527f6f6c64206d757374206265206c657373207468616e206f7220657175616c20746064820152716f206e756d626572206f66206f776e65727360701b608482015260a490fd5b91906200212c815115156200202a565b6200213b81518311156200208e565b60018080926000925b620021f6575b50505091620021db91620021a8620021956200029396956200217e8560018060a01b03166000526008602052604060002090565b9060018060a01b0316600052602052604060002090565b80546001600160a01b0319166001179055565b6001600160a01b0382166000908152600760205260409020556001600160a01b0316600090815260066020526040902090565b906001600160401b03166001600160401b0319825416179055565b809391929351841015620023cf576200222162002214858362001531565b516001600160a01b031690565b916001600160a01b038084168015918215620023c4575b8215620023b9575b8215620023ac575b50506200235157620022926200228662002279856200217e8b60018060a01b03166000526008602052604060002090565b546001600160a01b031690565b6001600160a01b031690565b620022f15782620022e38594620022c4620022ea946200217e8c60018060a01b03166000526008602052604060002090565b80546001600160a01b0319166001600160a01b03909216919091179055565b946200151b565b9262002144565b60405162461bcd60e51b815260206004820152603260248201527f4b6c61737465724761746577617953696e676c65746f6e3a3a206475706c6963604482015271185d19481bdddb995c8819195d1958dd195960721b6064820152608490fd5b60405162461bcd60e51b815260206004820152602d60248201527f4b6c61737465724761746577617953696e676c65746f6e3a3a20696e76616c6960448201526c19081bdddb995c9cc81b1a5cdd609a1b6064820152608490fd5b8316149050388062002248565b308214925062002240565b818714925062002238565b8193506200214a565b6001600160a01b038082166000818152600760205260408120549095909490939092909190851562002412575050620002939450620026ef565b9391509350620024276041825110156200255b565b60ff62002444826020810151906060604082015191015160001a92565b979092909116806200247e57505094620024769184620002939716936200246f6041841015620025de565b8462002a4a565b161462002651565b9096602094889450601e831115620025305790620024ee620024e86200251593604051620024de8162001ed78c82019485603c917f19457468657265756d205369676e6564204d6573736167653a0a3332000000008252601c8201520190565b51902094620025ce565b60ff1690565b93604051948594859094939260ff6060936080840197845216602083015260408201520152565b838052039060015afa15620006ae5762000293925162002476565b6040805191825260ff9093166020820152918201929092526060810191909152806080810162002515565b156200256357565b60405162461bcd60e51b815260206004820152603f60248201527f4b6c61737465724761746577617953696e676c65746f6e4761736c6573733a3a60448201527f20696e76616c6964207369676e6174757265732061727261792073697a6521006064820152608490fd5b6003198101919082116200152b57565b15620025e657565b60405162461bcd60e51b815260206004820152603f60248201527f4b6c61737465724761746577617953696e676c65746f6e4761736c6573733a3a60448201527f20696e76616c6964207369676e6174757265206461746120706f696e746572006064820152608490fd5b156200265957565b60405162461bcd60e51b815260206004820152603a60248201527f4b6c61737465724761746577617953696e676c65746f6e4761736c6573733a3a60448201527f20696e76616c69642073696e676c65207369676e6174757265210000000000006064820152608490fd5b906041820291808304604114901517156200152b57565b818102929181159184041417156200152b57565b90916200270a81516200270286620026c4565b11156200255b565b600090815b8583106200271f57505050505050565b60ff9062002743848490604102016020810151906060604082015191015160001a92565b93909116806200285d57506001600160a01b0316916200277e90620027756200276c8a620026c4565b821015620025de565b84888562002a4a565b6001600160a01b03908116828216908111801592906200282a575b5081156200281e575b50620027bb57620027b490926200151b565b916200270f565b60405162461bcd60e51b815260206004820152603560248201527f4b6c61737465724761746577617953696e676c65746f6e3a3a20696e76616c6960448201527464206d756c7469736967207369676e61747572652160581b6064820152608490fd5b600191501438620027a2565b9091506200285362002279846200217e8960018060a01b03166000526008602052604060002090565b1615903862002799565b91929091601e8111156200290a5790600091620028f1604092835195620028cc620024e88d602099620028c28162001ed78d82019485603c917f19457468657265756d205369676e6564204d6573736167653a0a3332000000008252601c8201520190565b51902095620025ce565b9451948594859094939260ff6060936080840197845216602083015260408201520152565b838052039060015afa15620006ae57600051906200277e565b91602092620028f16000936040519384938c859094939260ff6060936080840197845216602083015260408201520152565b156200294457565b60405162461bcd60e51b815260206004820152603a60248201527f4b6c61737465724761746577617953696e676c65746f6e3a3a20636f6e74726160448201527f6374207369676e6174757265206f7574206f6620626f756e64730000000000006064820152608490fd5b90816020910312620001e557516200039e81620001d2565b6040906200039e93928152816020820152019062000bbe565b15620029e857565b60405162461bcd60e51b815260206004820152603460248201527f4b6c61737465724761746577617953696e676c65746f6e3a3a20696e76616c696044820152736420636f6e7472616374207369676e617475726560601b6064820152608490fd5b9291909162002a598162001b17565b82511062002b1b5762002ab29362002a948362002a8a602085819701019462002a8486519162001b17565b62001b26565b905110156200293c565b6040518080968194630b135d3f60e11b9788845260048401620029c7565b03916001600160a01b03165afa8015620006ae57620002939260009162002ae6575b506001600160e01b03191614620029e0565b62002b0c915060203d811162002b13575b62002b03818362000305565b810190620029af565b3862002ad4565b503d62002af7565b60405162461bcd60e51b815260206004820152603e60248201527f4b6c61737465724761746577617953696e676c65746f6e3a3a207369676e617460448201527f757265206461746120706f696e746572206f7574206f6620626f756e647300006064820152608490fd5b90601f811162002b9557505050565b600091825260208220906020601f850160051c8301941062002bd4575b601f0160051c01915b82811062002bc857505050565b81815560010162002bbb565b909250829062002bb2565b91909182516001600160401b038111620002c75762002c0b8162002c04845462000b5c565b8462002b86565b602080601f831160011462002c4a57508192939460009262002c3e575b50508160011b916000199060031b1c1916179055565b01519050388062002c28565b90601f1983169562002c6185600052602060002090565b926000905b88821062002ca15750508360019596971062002c87575b505050811b019055565b015160001960f88460031b161c1916905538808062002c7d565b8060018596829496860151815501950193019062002c66565b805468010000000000000000811015620002c75762002cdf9160018201815562000740565b819291549060031b9160018060a01b03809116831b921b1916179055565b9091906001600160a01b0362002d14848362001b67565b16600052600360205260ff6040600020541662002dff5762002dba9262002df98262002d44620002939462002e6a565b604051602081019062002d5e8162001ed788878662001b34565b519020906020815191016000f595869362002d9c62002d8f8660018060a01b03166000526003602052604060002090565b805460ff19166001179055565b6001600160a01b038516600090815260046020526040902062002bdf565b6001600160a01b038316600090815260056020526040902062002ddf908290620022c4565b6001600160a01b0316600090815260026020526040902090565b62002cba565b60405162461bcd60e51b815260206004820152603f60248201527f4b6c61737465724761746577617953696e676c65746f6e3a3a20416c7265616460448201527f79206465706c6f796564212055736520646966666572656e742073616c7421006064820152608490fd5b60405162002ecf916200039e916020916106d562002e8b8482018462000305565b8083528383019062003281823962002edf604051918583019360018060a01b0316845285835262002ebc83620002ab565b6040519788955180928888019062000b99565b8401915180938684019062000b99565b0103808452018262000305565b91604080519262002efd84620002cd565b60609182855282608060209682888201528284820152600083820152015280519560018060a01b03168587015284865262002f3886620002ab565b8051918583018381106001600160401b03821117620002c75760009562002f7991845286855283519062002f6c82620002ab565b8152868882015262002f98565b9562002f8462000327565b978852870152850152830152608082015290565b6020604051916397a657c960e01b8284015280516024840152015115156044820152604481526200039e81620002e9565b909160e082840312620001e557815162002fe38162000272565b926020830151906001600160401b038211620001e55762003006918401620018fd565b9160408101519160608201516200301d8162000487565b9160808101516200302e8162000487565b9160c060a0830151620030418162000487565b92015190565b6040810151602081805181010312620001e55760200151620030698162000272565b6001600160a01b03903090821603620030a957620030996060620002939301516020808251830101910162002fc9565b9690959491949392931662001f6d565b60405162461bcd60e51b815260206004820152605760248201527f4b6c61737465724761746577617953696e676c65746f6e3a3a204f6e6c79206f60448201527f6666696369616c204b6c61737465724761746577617953696e676c65746f6e2060648201527f63616e2073656e642043434950206d657373616765732e000000000000000000608482015260a490fd5b929190600054936001600160401b038082169081818860a01c1614600014620031ca575050509062003186936020926040518096819482936320487ded60e01b84526004840162001c9d565b03916001600160a01b03165afa918215620006ae57600092620031a857508190565b620031c591925060203d8111620006e157620006d1818362000305565b908190565b906200320194929691602094161460001462003252576001955b6040518095819482936320487ded60e01b84526004840162001c9d565b03916001600160a01b03165afa8015620006ae576200039e916000916200322f575b509260ff1683620026db565b6200324b915060203d8111620006e157620006d1818362000305565b3862003223565b600295620031e4565b6001600160401b038060005460a01c16908216146000146200327b575090565b90509056fe60803461008257601f6106d538819003918201601f19168301916001600160401b038311848410176100875780849260209460405283398101031261008257516001600160a01b0381168103610082576100739061005c3361009d565b600180546001600160a01b0319163317905561009d565b6040516105f090816100e58239f35b600080fd5b634e487b7160e01b600052604160045260246000fd5b600080546001600160a01b039283166001600160a01b03198216811783559216907f8be0079c531659141344cd1fd0a4f28419497f9722a3daafe3b4186f6b6457e09080a356fe6080604052600436101561001b575b361561001957600080fd5b005b6000803560e01c9081631626ba7e1461009e575080632422224e14610099578063361f107414610094578063715018a61461008f5780638da5cb5b1461008a578063b61d27f614610085578063f2fde38b146100805763f8b89cc60361000e576103b1565b6102ee565b61028a565b61024b565b6101f0565b6101c7565b610196565b346101105760403660031901126101105760243567ffffffffffffffff811161010c576100cf903690600401610129565b5060ff604082600435815260026020522054166100fe575b6040516001600160e01b0319919091168152602090f35b50630b135d3f60e11b6100e7565b5080fd5b80fd5b634e487b7160e01b600052604160045260246000fd5b81601f8201121561018c5780359067ffffffffffffffff928383116101915760405193601f8401601f19908116603f0116850190811185821017610191576040528284526020838301011161018c57816000926020809301838601378301015290565b600080fd5b610113565b3461018c57602036600319011261018c576004356000526002602052602060ff604060002054166040519015158152f35b3461018c57600036600319011261018c576001546040516001600160a01b039091168152602090f35b3461018c576000806003193601126101105761020a6103fb565b80546001600160a01b03198116825581906001600160a01b03167f8be0079c531659141344cd1fd0a4f28419497f9722a3daafe3b4186f6b6457e08280a380f35b3461018c57600036600319011261018c576000546040516001600160a01b039091168152602090f35b600435906001600160a01b038216820361018c57565b3461018c57606036600319011261018c576102a3610274565b6044359067ffffffffffffffff821161018c576102c76102d1923690600401610129565b90602435906104cf565b6040805192151583526001600160a01b0391909116602083015290f35b3461018c57602036600319011261018c57610307610274565b61030f6103fb565b6001600160a01b03908116801561035d57600080546001600160a01b03198116831782559092167f8be0079c531659141344cd1fd0a4f28419497f9722a3daafe3b4186f6b6457e08380a380f35b60405162461bcd60e51b815260206004820152602660248201527f4f776e61626c653a206e6577206f776e657220697320746865207a65726f206160448201526564647265737360d01b6064820152608490fd5b3461018c57608036600319011261018c576103ca610274565b6044359067ffffffffffffffff821161018c576103ee6102d1923690600401610129565b6064359160243590610453565b6000546001600160a01b0316330361040f57565b606460405162461bcd60e51b815260206004820152602060248201527f4f776e61626c653a2063616c6c6572206973206e6f7420746865206f776e65726044820152fd5b6001600160a01b0394939085811661049a57508061047c575061047792935061059b565b600191565b90916104949281519160200190f5928316151561054f565b60019190565b906104ad949550806104b1575b506104cf565b9091565b60005260026020526040600020600160ff19825416179055386104a7565b60015490929190336001600160a01b0391821614908115610541575b501561050c576000928251916020604051940191618795195a01f190600090565b60405162461bcd60e51b815260206004820152600d60248201526c4e6f7420616e206f776e65722160981b6044820152606490fd5b9050600054163314386104eb565b1561055657565b60405162461bcd60e51b815260206004820152601960248201527f436f756c64206e6f74206465706c6f7920636f6e7472616374000000000000006044820152606490fd5b60208251920190f0906105b86001600160a01b038316151561054f565b56fea26469706673582212201e9f244fbe3d31e097c4c2f50dba1f63caedae846c3f02e7d56113c0d045380564736f6c63430008130033a2646970667358221220426685829657df132994bcd18613a93a79491f3f21a6ebaa08ff02ca30d5e30f64736f6c63430008130033",
  "linkReferences": {},
  "deployedLinkReferences": {}
}